:020000040000FA
:040000003A84643AA0
:040001003B404EB979
:040002003BA03D3CA6
:040003003BE0981531
:040004003C0FD6E5F2
:040005003C2DF20A92
:040006003C4D6A3AC9
:040007003C6B568474
:040008003C8493AAF7
:040009003C9344FEE2
:04000A003CA27F5045
:04000B003CB00EE215
:04000C003CBE31695C
:04000D003CCBB467CD
:04000E003CD8EA1BD5
:04000F003CE563AABF
:040010003CF1A7F523
:040011003CFDBC9B5B
:040012003D049CDA33
:040013003D0A1A5533
:040014003D0F41C893
:040015003D14511530
:040016003D1911522D
:040017003D1DACD708
:040018003D21E66D33
:040019003D25EA3562
:04001A003D29ECE9A7
:04001B003D2D5CB368
:04001C003D307D15E1
:04001D003D339B9D37
:04001E003D363E3BF2
:04001F003D38BC1498
:040020003D3B049CC4
:040021003D3D032836
:040022003D3EFF72EE
:040023003D4095289F
:040024003D41E21266
:040025003D42E30570
:040026003D43D2F490
:040027003D44526D95
:040028003D44C7D5B7
:040029003D451E1C17
:04002A003D452330FD
:04002B003D44DD4231
:04002C003D448B3094
:04002D003D43F30A52
:04002E003D435D9C55
:04002F003D42859039
:040030003D418E7C44
:040031003D405D9061
:040032003D3EF42A31
:040033003D3D97BBFD
:040034003D3C295DC9
:040035003D3A81814E
:040036003D38984E6B
:040037003D36E0145E
:040038003D34CF3054
:040039003D32DAF783
:04003A003D309A2497
:04003B003D2E5842BC
:04003C003D2C3A918C
:04003D003D29D01D6C
:04003E003D277024C6
:04003F003D24FABDA5
:040040003D2283B228
:040041003D1FFC84DF
:040042003D1D788761
:040043003D1AD7C7C4
:040044003D183EA184
:040045003D158E488F
:040046003D12F7F67A
:040047003D1040C860
:040048003D0DA37E49
:040049003D0AFBD39E
:04004A003D0840AB82
:04004B003D059A8055
:04004C003D02F39CE2
:04004D003D005CCD49
:04004E003CFB7440C3
:04004F003CF6175C08
:040050003CF1091066
:040051003CEBD34170
:040052003CE6C011B7
:040053003CE19739BC
:040054003CDC9D876C
:040055003CD7C0399B
:040056003CD2C24C8A
:040057003CCDEDECC3
:040058003CC927096F
:040059003CC4697BBF
:04005A003CBFC3BA2A
:04005B003CBB3C2648
:04005C003CB6B33DBE
:04005D003CB2485415
:04005E003CADF1D6EE
:04005F003CA9936BBA
:040060003CA565292D
:040061003CA13C91F1
:040062003C9D282871
:040063003C9939BDCE
:040064003C95525322
:040065003C9170D486
:040066003C8DB075A8
:040067003C89FC24B0
:040068003C865C2551
:040069003C82DD7682
:04006A003C7EBA6AB4
:04006B003C78184481
:04006C003C7173ADC3
:04006D003C6AFC06E7
:04006E003C64A482C8
:04006F003C5E732957
:040070003C586B9AF3
:040071003C528FEC82
:040072003C4CCA73C5
:040073003C47249151
:040074003C4196C5B0
:040075003C3C3E3A97
:040076003C3713B848
:040077003C31EF0920
:040078003C2CF167C4
:040079003C28221DE0
:04007A003C2371486A
:04007B003C1ED7153B
:04007C003C1A555580
:04007D003C15E29BB1
:04007E003C11A1E5AB
:04007F003C0D7DB8FF
:040080003C097A417C
:040081003C0585AA0B
:040082003C01AE9DF2
:040083003BFBE9401A
:040084003BF4B13464
:040085003BEDA7CCDC
:040086003BE6B79509
:040087003BE0170043
:040088003BD980BF21
:040089003BD33E0D1A
:04008A003BCD10D288
:04008B003BC7090D59
:04008C003BC13E86B0
:04008D003BBBA303D3
:04008E003BB609C2B2
:04008F003BB0C81AA0
:040090003BAB86857B
:040091003BA67C30DE
:040092003BA18CF30F
:040093003B9CD0CAF8
:040094003B9831FB69
:040095003B93A6658E
:040096003B8F4F80CD
:040097003B8AFEC4DE
:040098003B86D5D4FA
:040099003B82E4982A
:04009A003B7DF53283
:04009B003B765BBB9A
:04009C003B6F0A2D7F
:04009D003B67DF6579
:04009E003B60FCE5E2
:04009F003B5A34CBC9
:0400A0003B53AEB070
:0400A1003B4D54A8D7
:0400A2003B472A09A5
:0400A3003B413AACF7
:0400A4003B3B6EA8CC
:0400A5003B35C651D0
:0400A6003B30492979
:0400A7003B2AF2A05E
:0400A8003B25D41D03
:0400A9003B20CEFD2D
:0400AA003B1C02C039
:0400AB003B17392F97
:0400AC003B12BB75D3
:0400AD003B0E3DC603
:0400AE003B0A004CBD
:0400AF003B05D49A9F
:0400B0003B01BE5EF4
:0400B1003AFBA35D16
:0400B2003AF3F40D1C
:0400B3003AEC97EAA2
:0400B4003AE561DBED
:0400B5003ADE73922A
:0400B6003AD7ADEC9C
:0400B7003AD1218B8E
:0400B8003ACACBBABB
:0400B9003AC49F5C4A
:0400BA003ABEA96140
:0400BB003AB8E4B3B8
:0400BC003AB34468A7
:0400BD003AADBB2875
:0400BE003AA877E7FE
:0400BF003AA3534CC1
:0400C0003A9E57B756
:0400C1003A9995E0F3
:0400C2003A94DF99F4
:0400C3003A904E29F8
:0400C4003A8BE3F0A0
:0400C5003A87AC7555
:0400C6003A838F2AC0
:0400C7003A7EF8097C
:0400C8003A77346CE3
:0400C9003A6FB10FCA
:0400CA003A684E56EC
:0400CB003A614A2A22
:0400CC003A5A600933
:0400CD003A53A4A45A
:0400CE003A4D41EE78
:0400CF003A46E5CFF9
:0400D0003A40CFB52E
:0400D1003A3AF105C1
:0400D2003A35439ADE
:0400D3003A2FB8C741
:0400D4003A2A4387FA
:0400D5003A2513B7FE
:0400D6003A2002D0FA
:0400D7003A1B1E2A88
:0400D8003A1660C8AC
:0400D9003A11D55BA8
:0400DA003A0D4E8508
:0400DB003A08F0F5FA
:0400DC003A04D238D8
:0400DD003A00BEC760
:0400DE0039F982CB9F
:0400DF0039F1ED32D4
:0400E00039EA89B5BB
:0400E10039E3458337
:0400E20039DC557C34
:0400E30039D589BBC7
:0400E40039CF0F9968
:0400E50039C8ACC1A9
:0400E60039C27DBCE2
:0400E70039BC98EC9C
:0400E80039B6CB3624
:0400E90039B121BE4A
:0400EA0039ABBF4F20
:0400EB0039A67E179D
:0400EC0039A15FD601
:0400ED00399C6108D1
:0400EE0039979CC4DE
:0400EF003992EBBE99
:0400F000398E6CC910
:0400F100398A0C78C4
:0400F2003985D8482C
:0400F3003981B81B7C
:0400F400397B6CB038
:0400F5003973BDA8F6
:0400F600396C3D61C3
:0400F7003964FBDC91
:0400F800395DFD76FB
:0400F90039572B78D0
:0400FA0039507B2DD1
:0400FB00394A2991C4
:0400FC003943DF2382
:0400FD00393DEF702A
:0400FE00393812AFCC
:0400FF003932721010
:04010000392CE23D77
:040101003927A032C8
:04010200392272F834
:04010300391D8174AD
:040104003918A5DD24
:040105003913F7862D
:04010600390F69F153
:04010700390AEFC101
:040108003906B36E93
:040109003902851919
:04010A0038FD10CCE0
:04010B0038F55988E2
:04010C0038EDCFC437
:04010D0038E6772831
:04010E0038DF5E492F
:04010F0038D88F2528
:0401100038D1E87783
:0401110038CB741F54
:0401120038C5264284
:0401130038BF18F2E7
:0401140038B93121A4
:0401150038B38CE689
:0401160038AE0DF5FD
:0401170038A8AF173E
:0401180038A3730A8B
:04011900389E6CD3CD
:04011A00389994EC90
:04011B003894D0F450
:04011C00389048E2ED
:04011D00388BD2A3A6
:04011E003887965B2D
:04011F0038835EE1E2
:04012000387EAAC4B7
:040121003876DD0748
:04012200386F451AD3
:040123003867EA8EC1
:040124003860C1C7B7
:040125003859D3155D
:0401260038532B51CE
:04012700384CB39508
:04012800384655A45C
:04012900384039CF52
:04012A00383A4FAE62
:04012B003834A5546B
:04012C00382F09E976
:04012D003829B0D1EC
:04012E0038246C11F4
:04012F00381F6A7794
:04013000381A8A1ED1
:040131003815C84174
:0401320038112ECE84
:04013300380CA94D8E
:0401340038085845EA
:0401350038043163F6
:040136003800142C4D
:0401370037F85449F8
:0401380037F0A4FCFC
:0401390037E9393732
:04013A0037E21B1677
:04013B0037DB18494D
:04013C0037D46880CC
:04013D0037CDCFCE1D
:04013E0037C79161CD
:04013F0037C15EADB9
:0401400037BB632D39
:0401410037B5B39982
:0401420037B008F7D3
:0401430037AAB368BC
:0401440037A56C155A
:0401450037A046D0C9
:04014600379B6CC1B6
:040147003796A3182C
:040148003791EEC23B
:04014900378D80EA84
:04014A003789245D70
:04014B003784DEB364
:04014C003780D1998E
:04014D003779B2D676
:04014E0037721031C3
:04014F00376AA1C0AA
:0401500037636B970F
:04015100375C66248D
:040152003755A43D3C
:04015300374F0FB95A
:040154003748A9FA85
:0401550037427A11A2
:04015600373C7EB103
:040157003736B7621E
:040158003731146CBB
:04015900372B995552
:04015A003726666876
:04015B003721404BBD
:04015C00371C4C37C9
:04015D0037177EC111
:04015E003712D5A1DE
:04015F00370E46C64B
:040160003709E0B6C5
:040161003705B8F8AE
:0401620037018A9641
:0401630036FB31D066
:0401640036F367BB4C
:0401650036EBE5F19F
:0401660036E4A89E35
:0401670036DD9EF3F0
:0401680036D6CF7840
:0401690036D0307FDD
:04016A0036C9CCC600
:04016B0036C399F10D
:04016C0036BD9CDA26
:04016D0036B7BF8062
:04016E0036B20EA0F7
:04016F0036ACA85FA3
:0401700036A7452940
:0401710036A2286822
:04017200369D262967
:040173003698611841
:0401740036939C5DC5
:04017500368F13B6F8
:04017600368AB1E52F
:04017700368667D38E
:0401780036824BF789
:04017900367C8CA89C
:04017A003674CC4DBE
:04017B00366D4D0987
:04017C00366602F9E8
:04017D00365EECA757
:04017E00365804F8F3
:04017F00365167DDB1
:04018000364AF60005
:040181003644AD480B
:04018200363EB265EE
:040183003638D946EB
:040184003633175F98
:04018500362DA6115C
:0401860036283CAD2E
:0401870036231C35CA
:04018800361E14F516
:04018900361929C139
:04018A0036147F6E3A
:04018B00360FE11E2C
:04018C00360B7E4769
:04018D0036073C8570
:04018E0036030C40E8
:04018F0035FE1250D7
:0401900035F63458B4
:0401910035EEA21590
:0401920035E74820E5
:0401930035E0357DA1
:0401940035D93EEC2F
:0401950035D28C5A79
:0401960035CC22053D
:0401970035C5D1FB9E
:0401980035BFC71791
:0401990035B9D9AAF1
:04019A0035B41BE875
:04019B0035AE946683
:04019C0035A92CD580
:04019D0035A40AB8C3
:04019E00359EFA454B
:04019F00359A135A20
:0401A000359559CD6B
:0401A1003590C4577A
:0401A200358C454C07
:0401A3003587EB9918
:0401A4003583CEF2DF
:0401A500357F7B79AE
:0401A6003577A0AF5A
:0401A700356FF93582
:0401A80035689D8A8F
:0401A900356178B490
:0401AA00355A87C774
:0401AB003553CB0EEF
:0401AC00354D50F28B
:0401AD003546F3A43C
:0401AE003540CA2EE0
:0401AF00353AE58C6C
:0401B000353526E7D4
:0401B100352F95C091
:0401B200352A35E2D3
:0401B3003524F5E614
:0401B400351FD3160A
:0401B500351AF9AE50
:0401B60035163320A7
:0401B7003511885422
:0401B800350D1649A2
:0401B9003508C7300E
:0401BA0035048D1E5D
:0401BB00350076B2E3
:0401BC0034F9035CB3
:0401BD0034F15B942A
:0401BE0034E9EE55DD
:0401BF0034E2B699D7
:0401C00034DBC05319
:0401C10034D4FDF342
:0401C20034CE6E5277
:0401C30034C80E1B13
:0401C40034C1E14819
:0401C50034BBFD93B7
:0401C60034B62D30EE
:0401C70034B092E8D6
:0401C80034AB182517
:0401C90034A5DE601B
:0401CA0034A0C46F2A
:0401CB00349BD87B0E
:0401CC0034971157FC
:0401CD003492568092
:0401CE00348DD55B3C
:0401CF00348987A444
:0401D00034855431ED
:0401D10034812FB78F
:0401D200347A60AF6C
:0401D3003472C17B46
:0401D400346B3F4306
:0401D5003463FFDBB5
:0401D600345D040A86
:0401D700345630D199
:0401D800344F9060B0
:0401D9003449412B39
:0401DA0034430106A3
:0401DB00343D04C4E7
:0401DC003437334E33
:0401DD00343197A67C
:0401DE00342C1B336F
:0401DF003426C39F60
:0401E0003421BACC40
:0401E100341CBC53BB
:0401E2003417ECE101
:0401E30034132C0B9A
:0401E400340EB8A974
:0401E500340A4EC5C5
:0401E6003405FD20BF
:0401E7003401EC3DB6
:0401E80033FBE219EA
:0401E90033F40E5786
:0401EA0033EC953D20
:0401EB0033E5466151
:0401EC0033DE316667
:0401ED0033D762F4AE
:0401EE0033D0BB79D6
:0401EF0033CA63713B
:0401F00033C41F886D
:0401F10033BE100405
:0401F20033B839865F
:0401F30033B28F2B69
:0401F40033AD1463B0
:0401F50033A7CD67F8
:0401F60033A293E9B4
:0401F700339DA09AFA
:0401F8003398C41E56
:0401F90033940B8BA5
:0401FA00338F787F48
:0401FB00338B0B082F
:0401FC003386C67907
:0401FD003382A0C0E9
:0401FE00337D4264A7
:0401FF003375830FC2
:00000001ff
