:020000040000FA
:040000003EFC0015AD
:040001003EF800AA1B
:040002003EF4023F87
:040003003EF0055373
:040004003EEC0A6460
:040005003EE811EFD1
:040006003EE41C7246
:040007003EE02A6647
:040008003EDC3C4559
:040009003ED8528605
:04000A003ED46D9FD4
:04000B003ED08E0055
:04000C003ECCB41C16
:04000D003EC8E05FAA
:04000E003EC51334A4
:04000F003EC14D029F
:040010003EBD8E2E35
:040011003EB9D71904
:040012003EB62820AE
:040013003EB2819DDB
:040014003EAEE3E633
:040015003EAB4F4E61
:040016003EA7C4231A
:040017003EA442B011
:040018003EA0CB3B00
:040019003E9D5E07A3
:04001A003E99FB53BD
:04001B003E96A35812
:04001C003E93564D6C
:04001D003E90146598
:04001E003E8CDDCD6A
:04001F003E89B2B0B4
:040020003E86933451
:040021003E837F7B20
:040022003E8077A401
:040023003E7AF79199
:040024003E7517FF0F
:040025003E6F50B822
:040026003E69A1DCB2
:040027003E640B81A7
:040028003E5E8DBAF1
:040029003E59289183
:04002A003E53DC095C
:04002B003E4EA8207D
:04002C003E498CCFEE
:04002D003E448A07BC
:04002E003E3F9FB6FC
:04002F003E3ACDC2C6
:040030003E36140E36
:040031003E31727773
:040032003E2CE8D6A2
:040033003E287701EB
:040034003E241CC882
:040035003E1FD9F79A
:040036003E1BAE5768
:040037003E1799B027
:040038003E139BC216
:040039003E0FB44F73
:04003A003E0BE31284
:04003B003E0827C78D
:04003C003E048227D5
:04003D003E00F1E6AA
:04003E003DFAED7426
:04003F003DF420AAC2
:040040003DED7CD145
:040041003DE701484E
:040042003DE0AD6D83
:040043003DDA809A88
:040044003DD47A2A03
:040045003DCE99749F
:040046003DC8DDD103
:040047003DC34695DA
:040048003DBDD318CF
:040049003DB882AE8E
:04004A003DB354ACC2
:04004B003DAE486915
:04004C003DA95D3A33
:04004D003DA49276C6
:04004E003D9FE77378
:04004F003D9B5B89F1
:040050003D96EE13D8
:040051003D929E69D5
:040052003D8E6BE88C
:040053003D8A55ECA1
:040054003D865BD5B5
:040055003D827D0368
:040056003D7D71AECD
:040057003D761D6D68
:040058003D6EFC0EEF
:040059003D680C6191
:04005A003D614D3B7C
:04005B003D5ABD75D8
:04005C003D545BEBC9
:04005D003D4E27806D
:04005E003D481F1AE0
:04005F003D4241A33A
:040060003D3C8E0D88
:040061003D37034BD9
:040062003D31A05735
:040063003D2C64309C
:040064003D274DD80F
:040065003D225C5785
:040066003D1D8EBBF3
:040067003D18E41547
:040068003D145B7C6C
:040069003D0FF40C47
:04006A003D0BACE4BA
:04006B003D07852B9D
:04006C003D037C09CB
:04006D003CFF215BD8
:04006E003CF7849740
:04006F003CF020360B
:040070003CE8F2B1C5
:040071003CE1FA8AEA
:040072003CDB364BF2
:040073003CD4A4884D
:040074003CCE43DD5E
:040075003CC812F081
:040076003CC2106E0A
:040077003CBC3B0B47
:040078003CB691867B
:040079003CB112A5DF
:04007A003CABBD35A9
:04007B003CA6900B04
:04007C003CA18A0415
:04007D003C9CAA04F9
:04007E003C97EEF8C5
:04007F003C9357D285
:040080003C8EE38C43
:040081003C8A9126FE
:040082003C865FA8B1
:040083003C824E204D
:040084003C7CB745C4
:040085003C750E9424
:040086003C6DA06EBF
:040087003C666B2345
:040088003C5F6D0A62
:040089003C58A48BB0
:04008A003C521014C0
:04008B003C4BAE211B
:04008C003C457D3939
:04008D003C3F7BEC8D
:04008E003C39A8D37E
:04008F003C34029665
:040090003C2E87E09B
:040091003C29376B64
:040092003C240FF704
:040093003C1F104FAF
:040094003C1A374596
:040095003C1583B4DF
:040096003C10F481A5
:040097003C0C8896FF
:040098003C083EE8FA
:040099003C0416739A
:04009A003C000E38E0
:04009B003BF84A8460
:04009C003BF0B5453B
:04009D003BE95AE2FF
:04009E003BE2399A6E
:04009F003BDB4FB642
:0400A0003BD49B8F23
:0400A1003BCE1B88AF
:0400A2003BC7CE1179
:0400A3003BC1B1A606
:0400A4003BBBC4CDD1
:0400A5003BB6061848
:0400A6003BB07424D3
:0400A7003BAB0D98CA
:0400A8003BA5D1267D
:0400A9003BA0BD8833
:0400AA003B9BD18427
:0400AB003B970BE68E
:0400AC003B926B8890
:0400AD003B8DEF4751
:0400AE003B89960EE6
:0400AF003B855ECC63
:0400B0003B81487ACE
:0400B1003B7AA433BF
:0400B2003B72F56444
:0400B3003B6B82A879
:0400B4003B644A2B34
:0400B5003B5D4A2A3B
:0400B6003B5680ED48
:0400B7003B4FECCB04
:0400B8003B498C270D
:0400B9003B435D70F8
:0400BA003B3D5F2249
:0400BB003B378FC47C
:0400BC003B31EDE8FF
:0400BD003B2C782B35
:0400BE003B272D3778
:0400BF003B220BBD18
:0400C0003B1D127A58
:0400C1003B18403573
:0400C2003B1393BC9D
:0400C3003B0F0BE9FB
:0400C4003B0AA79EAE
:0400C5003B0665C6CB
:0400C6003B02455361
:0400C7003AFC8A7FF6
:0400C8003AF4C9201D
:0400C9003AED449D2B
:0400CA003AE5FB19FF
:0400CB003ADEEAC966
:0400CC003AD811EB22
:0400CD003AD16ECEE8
:0400CE003ACAFFCF5C
:0400CF003AC4C35319
:0400D0003ABEB7D1AC
:0400D1003AB8DBC995
:0400D2003AB32DC749
:0400D3003AADAC6234
:0400D4003AA8563CB4
:0400D5003AA32A041C
:0400D6003A9E2670B8
:0400D7003A994A42C6
:0400D8003A9494457D
:0400D9003A90034E08
:0400DA003A8B96398E
:0400DB003A874BEE27
:0400DC003A83235DE3
:0400DD003A7E36F73A
:0400DE003A76669375
:0400DF003A6ED39F03
:0400E0003A677C37C8
:0400E1003A605E879C
:0400E2003A5978CC43
:0400E3003A52C94D77
:0400E4003A4C4E62E2
:0400E5003A46066C25
:0400E6003A3FEFDCD2
:0400E7003A3A092F69
:0400E8003A3450EB6B
:0400E9003A2EC5A442
:0400EA003A2965FA50
:0400EB003A243095EE
:0400EC003A1F24296A
:0400ED003A1A3F7408
:0400EE003A15813FFF
:0400EF003A10E85A81
:0400F0003A0C73A1B2
:0400F1003A0821F7B1
:0400F2003A03F24992
:0400F30039FFC716F4
:0400F40039F7E9757A
:0400F50039F049BADB
:0400F60039E8E5FD03
:0400F70039E1BC67C8
:0400F80039DACB2FF7
:0400F90039D410994D
:0400FA0039CD8AF77B
:0400FB0039C738AB1E
:0400FC0039C1181ED0
:0400FD0039BB27CC18
:0400FE0039B5663773
:0400FF0039AFD1F153
:0401000039AA69941B
:0401010039A52BC928
:0401020039A0173FCA
:04010300399B2AB347
:04010400399664E9DB
:040105003991C4B1B7
:04010600398D48E304
:040107003988F060E3
:040108003984BA1468
:040109003980A4F0A5
:04010A0039795FE1FF
:04010B003971B43062
:04010C00396A44E226
:04010D003963101C26
:04010E00395C141232
:04010F0039554F0609
:04011000394EBF465F
:040111003948632FD7
:040112003942392A0B
:04011300393C3FAE86
:040114003936753CC7
:040115003930D86342
:04011600392B67BB5F
:04011700392621E87C
:0401180039210599EB
:04011900391C1188F4
:04011A0039174478D5
:04011B0039129D35C3
:04011C00390E1A97E7
:04011D003909BB7C65
:04011E0039057ECE53
:04011F003901637CC3
:0401200038FAD102D6
:0401210038F319BCDA
:0401220038EB9F38DF
:0401230038E45F98C5
:0401240038DD590C5D
:0401250038D689D36C
:0401260038CFF03AA4
:0401270038C98A9AAF
:0401280038C3575928
:0401290038BD54EC9D
:04012A0038B781D28F
:04012B0038B1DC9774
:04012C0038AC63D0B8
:04012D0038A71621B8
:04012E0038A1F235CD
:04012F00389CF6C53D
:040130003898229148
:040131003893746427
:04013200388EEB1305
:04013300388A857B06
:040134003886428443
:040135003882211DCE
:04013600387C407958
:0401370038747DC8D3
:04013800386CF834F3
:040139003865ADDD9B
:04013A00385E9CF19E
:04013B003857C3AAC4
:04013C0038512054C2
:04013D00384AB14447
:04013E00384474E1EC
:04013F00383E699944
:0401400038388DEBD3
:040141003832E0610F
:04014200382D5F8D68
:0401430038280A123C
:040144003822DE98E7
:04014500381DDBD5B1
:040146003819008ADA
:0401470038144B7E9F
:04014800380FBB842D
:04014900380B4F7AA6
:04014A003807064329
:04014B003802DECDCB
:04014C0037FDB01FAC
:04014D0037F5E20F91
:04014E0037EE5178BF
:04014F0037E6FC751E
:0401500037DFE13183
:0401510037D8FDE5B9
:0401520037D250D977
:0401530037CBD8616D
:0401540037C592DF3A
:0401550037BF7EC270
:0401560037B99A8596
:0401570037B3E4AF27
:0401580037AE5BD291
:0401590037A8FE8C39
:04015A0037A3CB8775
:04015B00379EC17496
:04015C003799DF12DE
:04015D003795232887
:04015E0037908C87C3
:04015F00378C1A09B6
:040160003787CA9281
:0401610037839D0F34
:04016200377F20E4DF
:04016300377747752E
:04016400376FABD76F
:0401650037684C2586
:040166003761268750
:04016700375A393397
:040168003753826E19
:04016900374D008A84
:04016A003746B1E77C
:04016B00374094F194
:04016C00373AA82155
:04016D003734E9FB3F
:04016E00372F5910BE
:04016F003729F3FD3C
:040170003724B96611
:04017100371FA7FF8E
:04017200371ABE82F8
:040173003715FBB68B
:0401740037115E6879
:04017500370CE573EB
:0401760037088FB8FF
:0401770037045C21CC
:04017800370049A261
:0401790036F8AE6B3B
:04017A0036F107BF94
:04017B0036E99D566E
:04017C0036E26D55A5
:04017D0036DB75F008
:04017E0036D4B56955
:04017F0036CE2A113D
:0401800036C7D24468
:0401810036C1AC6C6B
:0401820036BBB701D0
:0401830036B5F08419
:0401840036B05783B7
:0401850036AAEA9A12
:0401860036A5A86B87
:0401870036A08FA867
:04018800369B9F09FA
:040189003696D5527F
:04018A003692315226
:04018B00368DB1DE1E
:04018C00368955D883
:04018D0036851C286F
:04018E00368103BFF4
:04018F00367A173075
:0401900036726568F6
:04019100366AF03B9F
:040192003663B5CB50
:04019300365CB44AD8
:040194003655E9F6FD
:04019500364F551E6E
:040196003648F41DD6
:040197003642C559CE
:04019800363CC748E2
:040199003636F86995
:04019A00363157495A
:04019B00362BE2809D
:04019C00362698B0BB
:04019D003621788807
:04019E00361C80BECD
:04019F003617B0154A
:0401A00036130559B4
:0401A100360E7F5F38
:0401A200360A1D05F7
:0401A3003605DD330D
:0401A4003601BEDA88
:0401A50035FB81E1C4
:0401A60035F3C4F079
:0401A70035EC44F1FE
:0401A80035E5000534
:0401A90035DDF45AF2
:0401AA0035D7202DF8
:0401AB0035D081C901
:0401AC0035CA1787B2
:0401AD0035C3DFCBAC
:0401AE0035BDD9087A
:0401AF0035B801BDA1
:0401B00035B2587399
:0401B10035ACDBC0CE
:0401B20035A78A459E
:0401B30035A262AD62
:0401B400359D63AE64
:0401B50035988C0AE3
:0401B6003593DA891A
:0401B700358F4DFF34
:0401B800358AE54A55
:0401B90035869F4F99
:0401BA0035827AFC14
:0401BB00357CEE9110
:0401BC003575266708
:0401BD00356D9B8879
:0401BE0035664C1145
:0401BF00355F362E44
:0401C0003558581A3C
:0401C1003551B01DE7
:0401C200354B3C8DF0
:0401C3003544FBCDF7
:0401C400353EEC4D8B
:0401C50035390C8A32
:0401C60035335B0A68
:0401C700352DD6629A
:0401C80035287D3029
:0401C90035234E1F6D
:0401CA00351E47E2B5
:0401CB003519693841
:0401CC003514B0E94D
:0401CD0035101DC606
:0401CE00350BAEAC93
:0401CF003507627F0F
:0401D0003503382B90
:0401D10034FE5D4A51
:0401D20034F689D79F
:0401D30034EEF40909
:0401D40034E799F87B
:0401D50034E079CFCA
:0401D60034D991C6C1
:0401D70034D2E0221C
:0401D80034CC633789
:0401D90034C61967A8
:0401DA0034C0011D0F
:0401DB0034BA18D545
:0401DC0034B45F14C4
:0401DD0034AED26CFE
:0401DE0034A9717956
:0401DF0034A43AE327
:0401E000349F2D5EBD
:0401E100349A47A461
:0401E2003495887D4B
:0401E3003490EEB8AE
:0401E400348C7931AD
:0401E500348826C86C
:0401E6003483F669FF
:0401E700347FCE1380
:0401E8003477EF4831
:0401E90034704E79A7
:0401EA003468E9C0CC
:0401EB003461BF427A
:0401EC00345ACD357F
:0401ED00345411DD98
:0401EE00344D8B8A77
:0401EF003447389CBD
:0401F0003441177C03
:0401F100343B26A3D2
:0401F20034356495A7
:0401F300342FCFE1F5
:0401F400342A672220
:0401F500342528FE87
:0401F6003420142479
:0401F700341B27513D
:0401F8003416614810
:0401F9003411C0D825
:0401FA00340D44D9A3
:0401FB003408EC2CAC
:0401FC003404B5BB57
:0401FD003400A078B2
:0401FE0033F956BCBF
:0401FF0033F1AADF4F
:00000001ff
