:020000040000FA
:040000003E7FF2A9A4
:040001003E7FC2F785
:040002003E7F7304C6
:040003003E7F032A0F
:040004003E7E7412B6
:040005003E7DC679FD
:040006003E7CF8ED57
:040007003E7C0D9A94
:040008003E7B040532
:040009003E79DCDA86
:04000A003E7897B0F5
:04000B003E7737DA2B
:04000C003E75BB2C56
:04000D003E7423D149
:04000E003E72721AB2
:04000F003E70A75444
:040010003E6EC3A2DB
:040011003E6CC7D3A7
:040012003E6AB54647
:040013003E688CC6F1
:040014003E664F7382
:040015003E63FDA5A4
:040016003E6198DCD3
:040017003E5F21AA7D
:040018003E5C99A70A
:040019003E5A0166E4
:04001A003E5759688C
:04001B003E54A41E8D
:04001C003E51E1E48C
:04001D003E4F12FE42
:04001E003E4C39A17A
:04001F003E4955F60B
:040020003E466926C9
:040021003E43746284
:040022003E4077F1F4
:040023003E3D75C326
:040024003E3A6E7F73
:040025003E376319E6
:040026003E3453E52C
:040027003E3142B272
:040028003E2E2F5CDD
:040029003E2B1AEC64
:04002A003E2806AEB8
:04002B003E24F35626
:04002C003E21E10A86
:04002D003E1ED11290
:04002E003E1BC36A48
:04002F003E18B96856
:040030003E15B35571
:040031003E12B20EBB
:040032003E0FB622A5
:040033003E0CBF6F51
:040034003E09CEC5EE
:040035003E06E5029C
:040036003E0402AED4
:040037003E01271946
:040038003DFCA7FEE6
:040039003DF711344A
:04003A003DF18C8F79
:04003B003DEC193847
:04003C003DE6B708DE
:04003D003DE168B980
:04003E003DDC2D1266
:04003F003DD7052084
:040040003DD1F0E2DC
:040041003DCCF0F7CB
:040042003DC8054A66
:040043003DC32EBCCF
:040044003DBE6CCE83
:040045003DB9C047BA
:040046003DB5285646
:040047003DB0A63CE6
:040048003DAC38E7AC
:040049003DA7E117D7
:04004A003DA39EFC38
:04004B003D9F71CA9A
:04004C003D9B59E29D
:04004D003D9756E0A5
:04004E003D9369393C
:04004F003D8F90D081
:040050003D8BCC8692
:040051003D881D5A6F
:040052003D84826AFD
:040053003D80FC13DD
:040054003D7B12EEF0
:040055003D74551E83
:040056003D6DBF73CA
:040057003D675003AE
:040058003D6106DC24
:040059003D5AE39198
:04005A003D54E552DA
:04005B003D4F0B7595
:04005C003D495609BB
:04005D003D43C3E07C
:04005E003D3E549738
:04005F003D390825FA
:040060003D33DCDB75
:040061003D2ED2F36B
:040062003D29E98BC0
:040063003D251FAF69
:040064003D20755D69
:040065003D1BE9FF57
:040066003D177C7155
:040067003D132C8099
:040068003D0EF967E9
:040069003D0AE24B1F
:04006A003D06E73F29
:04006B003D0306B794
:04006C003CFE8218BC
:04006D003CF72A62D0
:04006E003CF00561FC
:04006F003CE911CE89
:040070003CE24E73AD
:040071003CDBBA2496
:040072003CD5542FF6
:040073003CCF1B4B18
:040074003CC90E88ED
:040075003CC32C421A
:040076003CBD738F8B
:040077003CB7E42E80
:040078003CB27C74A6
:040079003CAD3B3C23
:04007A003CA81FD8A7
:04007B003CA3297801
:04007C003C9E571F30
:04007D003C99A80DF5
:04007E003C951AAAE9
:04007F003C90AE7B88
:040080003C8C628AC8
:040081003C8836542D
:040082003C8428B8DA
:040083003C8038E5A0
:040084003C78CC0FE9
:040085003C715EED7F
:040086003C6A294463
:040087003C6328822C
:040088003C5C5C86FA
:040089003C55C272AE
:04008A003C4F5A137A
:04008B003C4921B912
:04008C003C43179644
:04008D003C3D3AA11B
:04008E003C378A72FF
:04008F003C320420DB
:040090003C2CA82834
:040091003C2774474D
:040092003C2267E1C4
:040093003C1D815E31
:040094003C18C01143
:040095003C14231ADA
:040096003C0FA8C7AC
:040097003C0B50FCD2
:040098003C071A14F3
:040099003C0302C959
:04009A003BFE1638DB
:04009B003BF6636B62
:04009C003BEEEB212B
:04009D003BE7AC444D
:04009E003BE0A47E21
:04009F003BD9D31066
:0400A0003BD3359D7C
:0400A1003BCCCB0584
:0400A2003BC691B513
:0400A3003BC087FBDC
:0400A4003BBAACE1D6
:0400A5003BB4FF0267
:0400A6003BAF7CE010
:0400A7003BAA254209
:0400A8003BA4F68BF4
:0400A9003B9FF01772
:0400AA003B9B101557
:0400AB003B965668C2
:0400AC003B91C08044
:0400AD003B8D4EBD7C
:0400AE003B88FECCC1
:0400AF003B84D08A34
:0400B0003B80C2E2ED
:0400B1003B79A8E708
:0400B2003B72096232
:0400B3003B6AA48D73
:0400B4003B63797CB5
:0400B5003B5C85C764
:0400B6003B55C85797
:0400B7003B4F3F3349
:0400B8003B48E8CF0A
:0400B9003B42C3DE25
:0400BA003B3CCE9E5F
:0400BB003B3707B117
:0400BC003B316DEC7B
:0400BD003B2C0030A8
:0400BE003B26BC3CE5
:0400BF003B21A188B8
:0400C0003B1CAE9D9A
:0400C1003B17E1EE1A
:0400C2003B133B327F
:0400C3003B0EB8C375
:0400C4003B0A597723
:0400C5003B061BFFDC
:0400C6003B01FFC833
:0400C7003AFC0837C0
:0400C8003AF44E7246
:0400C9003AECD1003C
:0400CA003AE58EA0E5
:0400CB003ADE844F46
:0400CC003AD7B1A0CE
:0400CD003AD1147898
:0400CE003ACAAA5F21
:0400CF003AC4735369
:0400D0003ABE6C8A3E
:0400D1003AB894CBDA
:0400D2003AB2EABE96
:0400D3003AAD6D4095
:0400D4003AA81B32F9
:0400D5003AA2F25009
:0400D6003A9DF20E4F
:0400D7003A9918E852
:0400D8003A9465BF32
:0400D9003A8FD73053
:0400DA003A8B6CF7FA
:0400DB003A872541FA
:0400DC003A82FE8FD7
:0400DD003A7DF1ADCA
:0400DE003A7625BC8D
:0400DF003A6E9638A7
:0400E0003A67423801
:0400E1003A60284019
:0400E2003A59457FC3
:0400E3003A529926CE
:0400E4003A4C20A4CE
:0400E5003A45DB7A43
:0400E6003A3FC78452
:0400E7003A39E2C9F7
:0400E8003A342CCBAF
:0400E9003A2EA3D731
:0400EA003A2945D991
:0400EB003A2412326F
:0400EC003A1F078927
:0400ED003A1A24A8EF
:0400EE003A1567CC8C
:0400EF003A10D0866D
:0400F0003A0C5D1257
:0400F1003A080CB10C
:0400F2003A03DE08E7
:0400F30039FFA0FF32
:0400F40039F7C5BA59
:0400F50039F027CDEA
:0400F60039E8C60619
:0400F70039E19E3617
:0400F80039DAAE77CC
:0400F90039D3F5778B
:0400FA0039CD71B8D3
:0400FB0039C720627F
:0400FC0039C1018F76
:0400FD0039BB1211E8
:0400FE0039B551CCF3
:0400FF0039AFBE7DDA
:0401000039AA57922F
:0401010039A51A7B87
:0401020039A0070019
:04010300399B1B15F4
:04010400399656369C
:040105003991B6B9BD
:04010600398D3BAF45
:040107003988E43817
:040108003984AE6523
:0401090039809A138C
:04010A0039794B0EE6
:04010B003971A02482
:04010C00396A31DC3F
:04010D003962FE4015
:04010E00395C033322
:04010F0039553EBC64
:04011000394EAFC9EC
:040111003948547D98
:0401120039422B76CD
:04011300393C32A0A1
:04011400393668FE12
:040115003930CC8031
:04011600392B5C50D5
:040117003926172648
:040118003920FB9DF2
:04011900391C08097C
:04011A0039173B4D09
:04011B00391294B44D
:04011C00390E12483E
:04011D003909B3B435
:04011E003905771414
:04011F0039015C5DE9
:0401200038FAC36B7B
:0401210038F30CA7FC
:0401220038EB92C361
:0401230038E453B3B6
:0401240038DD4DD89D
:0401250038D67F3F0A
:0401260038CFE5ECFD
:0401270038C980A3B0
:0401280038C34E3258
:0401290038BD4C3C55
:04012A0038B7798BDE
:04012B0038B1D45DB6
:04012C0038AC5C3659
:04012D0038A70EB130
:04012E0038A1EB59B0
:04012F00389CEFF613
:0401300038981BECF4
:0401310038936E0E83
:04013200388EE4F926
:04013300388A7FEC9B
:0401340038863D26A6
:0401350038821BC42D
:04013600387C36B625
:040137003874742E76
:04013800386CEF3DF3
:040139003865A55F21
:04013A00385E948611
:04013B003857BBE096
:04013C003851189985
:04013D00384AAA2B67
:04013E0038446DA331
:04013F00383E62F2F2
:04014000383887B50F
:040141003832DA076F
:04014200382D59D724
:040143003828042F25
:040144003822D91470
:04014500381DD6D2B9
:040146003818FB5515
:04014700381446859D
:04014800380FB7179E
:04014900380B4AEC39
:04014A00380701ED84
:04014B003802DAE6B6
:04014C0037FDA84192
:04014D0037F5DA8F19
:04014E0037EE4A0638
:04014F0037E6F53763
:0401500037DFDA308B
:0401510037D8F7475D
:0401520037D24A5DF9
:0401530037CBD22CA8
:0401540037C58D0816
:0401550037BF793403
:0401560037B9952AF6
:0401570037B3DF6C6F
:0401580037AE56D494
:0401590037A8F9E7E3
:04015A0037A3C6A65B
:04015B00379EBCE629
:04015C003799DAA451
:04015D0037951EDBD9
:04015E0037908861ED
:04015F00378C163D86
:040160003787C70412
:040161003783993215
:04016200377F1A1CAD
:04016300377740802A
:04016400376FA56FDD
:040165003768460EA3
:040166003761208F4E
:04016700375A33745C
:0401680037537CD8B5
:04016900374CFB35DF
:04016A003746ACADBB
:04016B0037408FD8B2
:04016C00373AA30F6C
:04016D003734E53D01
:04016E00372F54AC27
:04016F003729EF5AE3
:040170003724B54C2F
:04017100371FA3DDB4
:04017200371ABA9DE1
:040173003715F79FA6
:0401740037115ADB0A
:04017500370CE1FB67
:0401760037088C4476
:04017700370458E70A
:0401780037004662A4
:0401790036F8A84468
:04017A0036F101B4A5
:04017B0036E9975278
:04017C0036E267758B
:04017D0036DB704FAE
:04017E0036D4B03390
:04017F0036CE24DD77
:0401800036C7CD3E73
:0401810036C1A7C319
:0401820036BBB224B2
:0401830036B5EBB7EB
:0401840036B0533806
:0401850036AAE61C94
:0401860036A5A46B8B
:0401870036A08B8A89
:04018800369B9B1AED
:040189003696D1CA0B
:04018A0036922DABD1
:04018B00368DAE956A
:04018C0036895276E8
:04018D00368518B5E6
:04018E003681008C2A
:04018F00367A10CBE1
:0401900036725F78EC
:04019100366AEA7769
:040192003663B042DE
:04019300365CAEB771
:040194003655E4E414
:04019500364F50474A
:040196003648EF1DDB
:040197003642C0AB81
:04019800363CC288A7
:040199003636F3F211
:04019A003631531493
:04019B00362BDE5EC3
:04019C00362694DA95
:04019D00362174751E
:04019E00361C7CE2AD
:04019F003617AC66FD
:0401A000361301B45D
:0401A100360E7BC9D2
:0401A200360A19C23E
:0401A3003605DA370C
:0401A4003601BB9CC9
:0401A50035FB7BB8F3
:0401A60035F3BEF17E
:0401A70035EC3F50A4
:0401A80035E4FA71CF
:0401A90035DDEEE270
:0401AA0035D71AE645
:0401AB0035D07CBE11
:0401AC0035CA1272CC
:0401AD0035C3DB1C5F
:0401AE0035BDD4B3D4
:0401AF0035B7FD590A
:0401B00035B2542BE5
:0401B10035ACD79200
:0401B20035A78615D2
:0401B30035A25EAF64
:0401B400359D601EF7
:0401B5003598883FB2
:0401B6003593D6E6C1
:0401B700358F4AB482
:0401B800358AE1F0B3
:0401B90035869BE705
:0401BA00358277C74C
:0401BB00357CE87235
:0401BC0035752085F0
:0401BD00356D95CD3A
:0401BE0035664685D7
:0401BF00355F30E890
:0401C000355852ED6F
:0401C1003551AB17F2
:0401C200354B37B9C9
:0401C3003544F73F89
:0401C400353EE7FDE0
:0401C500353907FBC6
:0401C600353356C6B1
:0401C700352DD23DC3
:0401C80035287968F5
:0401C90035234A444C
:0401CA00351E442377
:0401CB003519657706
:0401CC003514AD3009
:0401CD0035101A943B
:0401CE00350BAB96AC
:0401CF0035075F345D
:0401D000350334D3EC
:0401D10034FE57376A
:0401D20034F6842F4C
:0401D30034EEEE25F3
:0401D40034E7947602
:0401D50034E0748519
:0401D60034D98C7E0E
:0401D70034D2DB241F
:0401D80034CC5E9035
:0401D90034C6148292
:0401DA0034BFFCAA88
:0401DB0034BA1473AB
:0401DC0034B45AD805
:0401DD0034AECE2D41
:0401DE0034A96D785B
:0401DF0034A4373ECF
:0401E000349F295AC5
:0401E100349A43D732
:0401E200349584BF0D
:0401E3003490EB7DEC
:0401E400348C75AC36
:0401E5003488237CBB
:0401E6003483F389E2
:0401E700347FC7EFAB
:0401E8003477E92B54
:0401E900347048F036
:0401EA003468E4355C
:0401EB003461BA08B9
:0401EC00345AC84871
:0401ED0034540CF189
:0401EE00344D86E81E
:0401EF00344733BAA4
:0401F000344112F292
:0401F100343B225F1A
:0401F20034356066DA
:0401F300342FCBD00A
:0401F400342A631F27
:0401F500342524DDAC
:0401F600342010732E
:0401F700341B237B17
:0401F80034165D9FBD
:0401F9003411BD6799
:0401FA00340D419CE3
:0401FB003408E91AC1
:0401FC003404B2B461
:0401FD0034009D8AA3
:0401FE0033F950D9A8
:0401FF0033F1A4F143
:00000001ff
